{
  "contractName": "TutorialContract",
  "abi": [
    {
      "inputs": [],
      "stateMutability": "nonpayable",
      "type": "constructor"
    },
    {
      "inputs": [],
      "name": "name",
      "outputs": [
        {
          "internalType": "string",
          "name": "",
          "type": "string"
        }
      ],
      "stateMutability": "view",
      "type": "function",
      "constant": true
    },
    {
      "inputs": [],
      "name": "number",
      "outputs": [
        {
          "internalType": "int256",
          "name": "",
          "type": "int256"
        }
      ],
      "stateMutability": "view",
      "type": "function",
      "constant": true
    }
  ],
  "bytecode": "0x608060405234801561001057600080fd5b506040518060400160405280600481526020017f52616661000000000000000000000000000000000000000000000000000000008152506001908051906020019061005c929190610062565b50610166565b82805461006e90610134565b90600052602060002090601f01602090048101928261009057600085556100d7565b82601f106100a957805160ff19168380011785556100d7565b828001600101855582156100d7579182015b828111156100d65782518255916020019190600101906100bb565b5b5090506100e491906100e8565b5090565b5b808211156101015760008160009055506001016100e9565b5090565b7f4e487b7100000000000000000000000000000000000000000000000000000000600052602260045260246000fd5b6000600282049050600182168061014c57607f821691505b602082108114156101605761015f610105565b5b50919050565b610291806101756000396000f3fe608060405234801561001057600080fd5b50600436106100365760003560e01c806306fdde031461003b5780638381f58a14610059575b600080fd5b610043610077565b60405161005091906101a4565b60405180910390f35b610061610105565b60405161006e91906101df565b60405180910390f35b6001805461008490610229565b80601f01602080910402602001604051908101604052809291908181526020018280546100b090610229565b80156100fd5780601f106100d2576101008083540402835291602001916100fd565b820191906000526020600020905b8154815290600101906020018083116100e057829003601f168201915b505050505081565b60005481565b600081519050919050565b600082825260208201905092915050565b60005b8381101561014557808201518184015260208101905061012a565b83811115610154576000848401525b50505050565b6000601f19601f8301169050919050565b60006101768261010b565b6101808185610116565b9350610190818560208601610127565b6101998161015a565b840191505092915050565b600060208201905081810360008301526101be818461016b565b905092915050565b6000819050919050565b6101d9816101c6565b82525050565b60006020820190506101f460008301846101d0565b92915050565b7f4e487b7100000000000000000000000000000000000000000000000000000000600052602260045260246000fd5b6000600282049050600182168061024157607f821691505b60208210811415610255576102546101fa565b5b5091905056fea264697066735822122010c8edb45a2e207a6e942d04087242db9790450c3243927da9d05ef5aaf48f4e64736f6c63430008090033",
  "immutableReferences": {},
  "source": "// SPDX-License-Identifier: UNLICENSED\r\npragma solidity ^0.8.9;\r\n\r\ncontract TutorialContract{\r\n    int public number;\r\n    string public name;\r\n\r\n    constructor() public {\r\n        name = \"Rafa\";\r\n    }\r\n    \r\n}",
  "sourcePath": "C:\\WORKSPACE\\BLOCKCHAIN\\contracts\\TutorialContract.sol",
  "compiler": {
    "name": "solc",
    "version": "0.8.9+commit.e5eed63a.Emscripten.clang"
  },
  "schemaVersion": "3.4.3",
  "updatedAt": "2021-11-07T16:49:25.875Z",
  "networkType": "ethereum",
  "devdoc": {
    "kind": "dev",
    "methods": {},
    "version": 1
  },
  "userdoc": {
    "kind": "user",
    "methods": {},
    "version": 1
  }
}